:100000006814002051170000AD170000B51700005C
:10001000BD170000C5170000AD170000000000006C
:10002000000000000000000000000000AD1700000C
:10003000AD17000000000000AD170000AD17000074
:10004000AD170000AD170000AD170000AD170000A0
:10005000AD170000AD170000AD170000AD17000090
:10006000AD170000AD170000AD170000AD17000080
:10007000AD170000AD170000AD170000AD17000070
:10008000AD170000AD170000AD170000AD17000060
:10009000AD170000AD170000AD170000AD17000050
:1000A000AD170000AD170000AD170000AD17000040
:1000B000AD170000AD17000080B400AF064B1B6801
:1000C0001B68002B04D0044B1B680833024A1360E2
:1000D00000BFBD4680BC7047D008002080B586B008
:1000E00000AFF8600B467A60FB7200237B61214B06
:1000F0001B68002B36D1F97A1F4B7A68F86800F03C
:1001000053FE0346002B03D001237B6100232DE027
:10011000194B1B685B68174A1360174B1B681B68F9
:10012000164A13601EE0134B1A68144B1B681946DD
:10013000104600F00FFDFFF7BFFF0F4B1B681B6859
:10014000002B05D101237B610A4B00221A6009E0D4
:10015000094B1B685B68074A1360074B1B681B68E9
:10016000064A13607B69002BDDD000231846183740
:10017000BD4680BDE8080020D0080020EC08002023
:1001800080B586B000AFF8607B600B46FB7213460B
:10019000BB7201237B61B97A204B7A68F86800F062
:1001A00081FF0346002B01D0002332E007F10B034F
:1001B0000121184600F080FC0346002B01D00123EA
:1001C00027E0FB7A072B20D10421154800F074FCAE
:1001D0000346002B19D001231BE0104B1B685A6803
:1001E0000E4B1B681B681946104600F065FC034661
:1001F000002B01D001230CE0FFF75EFF074B1B68CB
:100200001B68002B01D100237B617B69002BE4D1AB
:10021000002318461837BD4680BD00BFD008002017
:10022000D808002080B584B000AF03460A46FB71B1
:100230001346BB71FB79002B19D00023FB7307F128
:100240000F030121184600F037FC0346002B01D0B4
:10025000012316E0FB79FB7307F10F030121184618
:1002600000F02AFC0346002B01D0012309E0BB79F2
:10027000184600F0C5FC0346002B01D0012300E026
:10028000002318461037BD4680BD00BF80B485B03E
:1002900000AF03460A46FB711346BB7197F907305E
:1002A000052B00F2E88001A252F823F0C5020000FD
:1002B0001D03000081030000C303000019040000B7
:1002C00071040000BB790D2B24D801A252F823F051
:1002D00009030000090300000903000009030000EE
:1002E00009030000090300000903000009030000DE
:1002F00009030000090300000F03000009030000C8
:1003000009030000090300000123FB7305E001233A
:10031000FB7302E0FF23FB7300BFAFE0BB790D2B43
:100320002AD801A252F823F0610300006D030000F7
:100330006D030000730300006D03000073030000F1
:1003400073030000670300006D03000073030000E7
:1003500079030000730300006D03000061030000D7
:100360000423FB730BE00523FB7308E00323FB73FB
:1003700005E00223FB7302E0FF23FB7300BF7DE077
:10038000BB79033B082B18D801A252F823F000BF19
:10039000B5030000BB030000B5030000B503000077
:1003A000BB030000BB030000B5030000BB0300005B
:1003B000B50300000323FB7302E0FF23FB7300BFC0
:1003C0005CE0BB79013B0C2B22D801A252F823F050
:1003D00005040000050400000504000005040000F9
:1003E00005040000050400001104000005040000DD
:1003F0000B040000110400000504000005040000C7
:10040000050400000423FB7305E00623FB7302E0F0
:10041000FF23FB7300BF31E0BB790D2B24D801A271
:1004200052F823F05D040000630400006304000040
:100430006304000063040000630400006304000020
:10044000630400005D04000069040000690400000A
:100450005D04000063040000630400000623FB73D6
:1004600005E00523FB7302E0FF23FB7300BF05E0FB
:100470000623FB7302E0FF23FB7300BFFB7B5BB231
:1004800018461437BD4680BC704700BF80B582B0A7
:1004900000AFB44B1B78002B31D13B1D0121184616
:1004A00000F058FB3A79AF4B5A70AE4B5B780A2B91
:1004B0000ED1AD4B01221A6001210820FFF7B2FED8
:1004C0000346002B00F03B82A84B00221A6051E249
:1004D000A44B1978A34B5A784BB211461846FFF734
:1004E000D5FE03461A469F4B1A709E4B1B785BB293
:1004F000B3F1FF3F03D19D4B00221A603AE2994BC2
:100500001B785BB2012B1AD10421994800F022FB21
:10051000944B1978934B5A784BB211461846FFF713
:10052000B5FE03461A468F4B1A708E4B1B785BB292
:10053000B3F1FF3F03D18D4B00221A601AE2894BC1
:100540001B785BB2022B1AD104218A4800F002FB0F
:10055000844B1978834B5A784BB211461846FFF7F3
:1005600095FE03461A467F4B1A707E4B1B785BB292
:10057000B3F1FF3F03D17D4B00221A60FAE1794BC2
:100580001B785BB2032B37D1764B9868754B597843
:10059000744B5B681A46FFF7A1FD0346FB71FB79BC
:1005A000012B03D1714B00221A60E3E1FB79002B90
:1005B0000BD001210120FFF735FE0346002B00F090
:1005C000C0816A4B00221A60D4E1664B1978654BF2
:1005D0005A784BB211461846FFF758FE03461A46A2
:1005E000604B1A705F4B1B785BB2B3F1FF3F03D1D6
:1005F0005E4B00221A60BDE15A4B1B785BB2042BA4
:1006000040F04581574B5B780D2B00F20E8101A223
:1006100052F823F04D0600008B060000DF060000B4
:10062000D507000009070000330700007907000024
:1006300033080000610600002B0800002B080000B2
:10064000A707000003080000B506000000F034FB17
:100650000346002B00F0EF80444B00221A6089E132
:10066000404B9B68184600F017FB0346002B00F038
:10067000E48001210320FFF7D5FD0346002B00F0A5
:1006800062813A4B00221A6074E1364B9B6818462F
:1006900000F040FB0346002B00F0D1800121042034
:1006A000FFF7C0FD0346002B00F04F812F4B0022C7
:1006B0001A605FE12B4B9B68184600F03FFB034636
:1006C000002B00F0BE8001210420FFF7ABFD0346A4
:1006D000002B00F03C81254B00221A604AE1214B9F
:1006E0009B68184600F03CFB0346002B00F0AB80F3
:1006F00001210520FFF796FD0346002B00F029811C
:100700001A4B00221A6035E1164B9B68184600F020
:10071000EDFD0346002B00F0988001210820FFF733
:1007200081FD0346002B00F01681104B00221A6059
:1007300020E10C4B9A680B4B5B681946104600F0A1
:10074000E5FD0346002B00F0828001210920FFF720
:1007500069FD0346002B00F00081044B00221A6063
:1007600008E100BFDC080020D408002000000020C1
:10077000E4080020E0080020804B9A687F4B5B680B
:100780001946104600F0D2FD0346002B61D001212E
:100790000A20FFF747FD0346002B00F0E080784B6E
:1007A00000221A60E6E0754B9A68744B5B68194644
:1007B000104600F067FC0346002B4CD001210720B7
:1007C000FFF730FD0346002B00F0CB806C4B00227E
:1007D0001A60CFE0694B9A68684B5B68194610460F
:1007E00000F038FC0346002B37D001210620FFF72C
:1007F00019FD0346002B00F0B680614B00221A6001
:10080000B8E05E4B9B68184600F0BCFA0346002B2C
:1008100025D001210B20FFF705FD0346002B00F03A
:10082000A480574B00221A60A4E0554B00221A60A6
:10083000A0E000BF14E000BF12E000BF10E000BF66
:100840000EE000BF0CE000BF0AE000BF08E000BF00
:1008500006E000BF04E000BF02E000BF00E000BF10
:10086000464B1978454B5A784BB211461846FFF75C
:100870000DFD03461A46414B1A70404B1B785BB284
:10088000B3F1FF3F03D13E4B00221A6072E03B4BB5
:100890001B785BB2052B36D1384B9868374B5A78AA
:1008A000364B5B680121FFF76BFC0346BB71BB79DC
:1008B000012B03D1324B00221A605BE0BB79002B85
:1008C0000AD001210220FFF7ADFC0346002B4ED0D9
:1008D0002B4B00221A604DE0284B1978274B5A7891
:1008E0004BB211461846FFF7D1FC03461A46234B7C
:1008F0001A70224B1B785BB2B3F1FF3F03D1204B40
:1009000000221A6036E01D4B1B785BB2062B30D1FB
:100910001A4B5B78092B2CD001237B717B7919460C
:100920000020FFF77FFC0346002B03D0144B00226E
:100930001A601FE0114B00221A7000BF19E000BFBF
:1009400018E000BF16E000BF14E000BF12E000BFD7
:1009500010E000BF0EE000BF0CE000BF0AE000BFE7
:1009600008E000BF06E000BF04E000BF02E000BFF7
:1009700000E000BF0837BD4680BD00BFDC08002096
:100980000000002080B582B000AF0123FB71FFF7AB
:100990007DFDFB7918460837BD4680BD80B582B025
:1009A00000AF0023FB71FFF7EDFF03463B603B68A0
:1009B000002B05D00D4B1B68002B01D0012300E05C
:1009C00000233B603B68002B09D0094B1B68002BC0
:1009D00002D00223FB7104E00023FB7101E001233C
:1009E000FB71FB7918460837BD4680BD000000202A
:1009F000D408002080B500AF8021114800F056FDDA
:100A00000346002B01D1012318E00D4B1B6818464B
:100A100000F05EFD02460B4B1A600A4B1B680A4A47
:100A20001360084B1B680133084A1360084B00220F
:100A30001A80054B1B6800221A700023184680BDDF
:100A4000F0080020F408002000090020F808002029
:100A5000FC08002080B500AF00F01AFD03461A46DE
:100A600001239A4201D0012302E0FFF7C3FF0346AE
:100A7000184680BD80B500AF0D4B1A680D4B1B8822
:100A800001339BB21946104600F02EFD03461A466C
:100A900000239A4201D1032307E0FFF7ABFF03468F
:100AA000002B01D0032300E00023184680BD00BFC7
:100AB000F0080020FC08002080B586B000AF786008
:100AC00039600023FB757B683B6137E01F4B1B8857
:100AD0007A2B08D1FFF7CEFF0346FB75FB7D002B79
:100AE00001D0FB7D2EE0194B1B88C3F17A03FB81FB
:100AF000FA893B689A4202D33B689BB200E0FB89CB
:100B0000BB60134B1B68BA683969184602F0A8FB32
:100B10003A68BB68D31A3B60BB689AB20B4B1B8820
:100B200013449AB2094B1A803A69BB6813443B617B
:100B3000074B1A68BB681344054A13603B68002BD7
:100B4000C4D1FB7D18461837BD4680BDFC08002087
:100B5000F808002080B588B000AF786039600023C5
:100B6000FB760023FB617B687B613DE0224B1B88A9
:100B7000002B2ED0204B1B881A463B689A4202D38A
:100B80003B689BB201E01C4B1B88FB81FB697A69C7
:100B9000D0181A4B1B68FA89194602F061FB164BF4
:100BA0001A88FB89D31A9AB2134B1A80134B1A680E
:100BB000FB891344114A1360FB893A68D31A3B60DE
:100BC0003B68002B01D1FB7E12E0FB89FA691344DC
:100BD000FB610949094800F01DFC38613B69B3F12C
:100BE000FF3F01D1012303E03B68002BBED1FB7E18
:100BF00018462037BD4680BD0409002008090020A2
:100C000080B582B000AF0346FB71FB79002B04D0A6
:100C10000A4B1B6802221A7003E0084B1B68012272
:100C20001A70FFF727FF0346032B01D1032300E0CF
:100C3000002318460837BD4680BD00BF00090020CC
:100C400080B500AF00F02CFC00BF80BD80B582B045
:100C500000AF786039603968786800F077FB024649
:100C600001239A4201D0012307E0FFF7F3FE034678
:100C7000002B01D0012300E0002318460837BD46B1
:100C800080BD00BF80B500AFFFF7DAFF00F078FB52
:100C90000023184680BD00BF80B483B000AF7860E9
:100CA0007B68002B01D0022300E0002318460C379C
:100CB000BD4680BC704700BF80B582B000AF062340
:100CC000FB71FB1D01211846FFF7F6FE0346002BC2
:100CD00001D003231AE00023FB71FB1D01211846FC
:100CE000FFF7EAFE0346002B01D003230EE00823A2
:100CF000FB71FB79FB71FB1D01211846FFF7DCFE40
:100D00000346002B01D0032300E0002318460837D8
:100D1000BD4680BD80B584B000AF78600023FB7312
:100D20007B68002B02D101F0FDFD01E00223FB7383
:100D3000FB7B18461037BD4680BD00BF80B485B030
:100D400000AF78600023FB737B68002B01D0022387
:100D5000FB73FB7B18461437BD4680BC704700BF51
:100D600080B485B000AF78600023FB737B68002BF4
:100D700001D00223FB73FB7B18461437BD4680BCB1
:100D8000704700BF80B485B000AF78600023FB736C
:100D90007B68002B01D00223FB73FB7B18461437C2
:100DA000BD4680BC704700BF80B497B000AFF8600C
:100DB0007A603B600B46FB72002387F857303B6834
:100DC00000221A60FB68002B05D0022387F85730F9
:100DD00097F8573014E1FB7A032B40F00B818B4BD3
:100DE0001B68002B40F0028100233B65884BFB64AD
:100DF000884A3B6D012142F833103B6D5A1C3A651D
:100E0000844ADB001344FA6C5A60834BBB64814A0A
:100E10003B6D012142F833103B6D5A1C3A657D4A07
:100E2000DB001344BA6C5A607C4B7B64794A3B6D9F
:100E3000012142F833103B6D5A1C3A65754ADB00BC
:100E400013447A6C5A60764B3B64724A3B6D0121C5
:100E500042F833103B6D5A1C3A656E4ADB0013446E
:100E60003A6C5A606F4BFB636A4A3B6D012142F852
:100E700033103B6D5A1C3A65664ADB001344FA6B2B
:100E80005A60694BBB63634A3B6D012142F83310E2
:100E90003B6D5A1C3A655F4ADB001344BA6B5A60DB
:100EA000624B7B635B4A3B6D012142F833103B6D23
:100EB0005A1C3A65574ADB0013447A6B5A605C4B04
:100EC0003B63544A3B6D012142F833103B6D5A1C81
:100ED0003A65504ADB0013443A6B5A60554BFB624B
:100EE0004C4A3B6D012142F833103B6D5A1C3A6568
:100EF000484ADB001344FA6A5A604F4BBB62454ACA
:100F00003B6D012142F833103B6D5A1C3A65414A52
:100F1000DB001344BA6A5A60484B7B623D4A3B6D22
:100F2000082142F833103B6D5A1C3A65394ADB0000
:100F300013447A6A5A60424B3B62364A3B6D082141
:100F400042F833103B6D5A1C3A65324ADB001344B9
:100F50003A6A5A603B4BFB612E4A3B6D082142F8CE
:100F600033103B6D5A1C3A652A4ADB001344FA6978
:100F70005A60354BBB61274A3B6D082142F833105C
:100F80003B6D5A1C3A65234ADB001344BA695A6028
:100F90002E4B7B611F4A3B6D082142F833103B6D9D
:100FA0005A1C3A651B4ADB0013447A695A60284B85
:100FB0003B61184A3B6D012142F833103B6D5A1CCE
:100FC0003A65144ADB0013443A695A60114A3B6D92
:100FD000002142F833103B6D5A1C3A650D4ADB0084
:100FE000134400225A60094B01221A603B68094AE7
:100FF0001A6003E0012387F8573000BF97F8573095
:1010000018465C37BD4680BC704700BF040A00200C
:10101000580B00200C090020590B00205A0B00200F
:101020005B0B00205C0B00205D0B00205E0B0020A2
:101030005F0B0020600B0020610B0020680B00207C
:10104000700B0020780B0020800B0020880B002004
:10105000900B002080B582B000AF786039607B686B
:10106000002B01D0022308E03B68012B04D101F0E2
:1010700091FA00BF002300E0012318460837BD465F
:1010800080BD00BF80B483B000AF786039607B68FA
:10109000002B01D0022300E0002318460C37BD4688
:1010A00080BC704780B495B000AFF8607A603B6058
:1010B0000B46FB72002387F84F303B6800221A6012
:1010C000FB68002B05D0022387F84F3097F84F308C
:1010D000F3E0FB7A012B02D0032B74D0E7E0794BCD
:1010E0001B68002B6BD10023BB64774B7B64774A72
:1010F000BB6C082142F83310BB6C5A1CBA64734AAB
:10110000DB0013447A6C5A60714B3B646F4ABB6CD2
:10111000082142F83310BB6C5A1CBA646B4ADB00DE
:1011200013443A6C5A606B4BFB63684ABB6C0821F2
:1011300042F83310BB6C5A1CBA64644ADB00134497
:10114000FA6B5A60644BBB63604ABB6C082142F87F
:101150003310BB6C5A1CBA645C4ADB001344BA6B94
:101160005A605E4B7B63594ABB6C082142F83310CE
:10117000BB6C5A1CBA64554ADB0013447A6B5A6044
:10118000574B3B63514ABB6C012142F83310BB6C97
:101190005A1CBA644D4ADB0013443A6B5A604B4AFE
:1011A000BB6C002142F83310BB6C5A1CBA64474A2E
:1011B000DB00134400225A60424B01221A603B6854
:1011C000424A1A6077E0474B1B68002B6BD1002323
:1011D000FB623D4BBB62444AFB6A082142F8331074
:1011E000FB6A5A1CFA62404ADB001344BA6A5A602E
:1011F000374B7B623C4AFB6A082142F83310FB6A9A
:101200005A1CFA62384ADB0013447A6A5A60314B3E
:101210003B62354AFB6A082142F83310FB6A5A1CCC
:10122000FA62314ADB0013443A6A5A602A4BFB6186
:101230002D4AFB6A082142F83310FB6A5A1CFA62F5
:10124000294ADB001344FA695A60244BBB61264AE1
:10125000FB6A082142F83310FB6A5A1CFA62224AE0
:10126000DB001344BA695A601D4B7B611E4AFB6A5E
:10127000012142F83310FB6A5A1CFA621A4ADB0059
:1012800013447A695A60184AFB6A002142F8331005
:10129000FB6A5A1CFA62144ADB00134400225A60AB
:1012A000104B01221A603B680F4A1A6003E00123C9
:1012B00087F84F3000BF97F84F3018465437BD4677
:1012C00080BC7047080A0020F00B0020CC090020E9
:1012D000F80B0020000C0020080C0020100C00204F
:1012E000180C00200C0A00209409002080B483B060
:1012F00000AF78607B68002B01D0022300E0002360
:1013000018460C37BD4680BC704700BF80B483B020
:1013100000AF786039607B68002B01D0022300E0C9
:10132000012318460C37BD4680BC704780B483B09B
:1013300000AF786039607B68002B01D0022300E0A9
:10134000012318460C37BD4680BC704780B582B07B
:1013500000AF786039603968786800F03BF9024680
:10136000064B1A60054B1B68B3F1FF3F01D1002308
:1013700000E0012318460837BD4680BD100A002052
:1013800080B500AF064B1B68184600F091F9034684
:10139000002B01D1012300E00023184680BD00BFCF
:1013A000100A002080B588B000AF78600B46FB7053
:1013B00013463B80FB78FB733B88FB61FB6905337D
:1013C000BB61FB69BB607B687B617B69002B01D1E2
:1013D000002319E0FA7B7B691A707B69013307F1FE
:1013E00008010422184601F03BFF094B1B68BA694B
:1013F0007969184600F08AF838613B69B3F1FF3F1C
:1014000001D1002300E0012318462037BD4680BDEE
:10141000100A002080B586B000AF786039600023E4
:101420003B61194B1B6807F10F010122184600F0C0
:101430009FF878617B69B3F1FF3F01D100231EE083
:10144000114B1B6807F110010422184600F090F8B8
:1014500078617B69B3F1FF3F01D100230FE00A4BB4
:101460001B683A690949184600F082F878617B6880
:10147000064A1A603B699AB23B681A8001231846F3
:101480001837BD4680BD00BF100A0020140A002096
:1014900080B400AF01231846BD4680BC704700BF32
:1014A00080B400AF00BFBD4680BC704780B483B03D
:1014B00000AF78600B467B807B68044A1A6001238A
:1014C00018460C37BD4680BC704700BF940A002008
:1014D00080B483B000AF7860024B18460C37BD462D
:1014E00080BC7047990A002080B582B000AF786058
:1014F0000B467B807B881A4601217868FFF752FFF4
:101500000346DBB218460837BD4680BD80B58AB0B9
:1015100000AFF860B9607A6000237B62BB683B6211
:101520004FF0FF33FB611BE07A68FB69934228BFF1
:101530001346BB6107F11403BA69396AF86800F011
:1015400067F878627B6AB3F1FF3F01D17B6A0BE0F9
:101550007B697A68D31A7B607B693A6A13443B6281
:101560007B68002BE0D17B6A18462837BD4680BDDA
:1015700080B58AB000AFF860B9607A6000237B6202
:10158000BB683B624FF0FF33FB611BE07A68FB698D
:10159000934228BF1346BB6107F11403BA69396A45
:1015A000F86800F059F878627B6AB3F1FF3F01D127
:1015B0007B6A0BE07B697A68D31A7B607B693A6A45
:1015C00013443B627B68002BE0D17B6A18462837C6
:1015D000BD4680BD80B485B000AF786039600B4AED
:1015E0000A4BDB6A43F01003D36202E0074B1B682F
:1015F000FB81064B9B6903F01003002BF6D0002300
:1016000018461437BD4680BC704700BF00D000406C
:1016100080B487B000AFF860B9607A603B60BB68A7
:101620003B6100237B6108E00A493B695A1C3A612F
:101630001B780B607B6901337B617A697B689A4216
:10164000F2D33B687A681A60002318461C37BD46FF
:1016500080BC704700D0004080B487B000AFF86015
:10166000B9607A603B60BB687B613B6800221A60AE
:101670000BE07B695A1C7A610C4A1268D2B21A706C
:101680003B681B685A1C3B681A603B681A687B6899
:101690009A4205D2054B9B6903F01003002BE8D05A
:1016A000002318461C37BD4680BC704700D0004060
:1016B00080B483B000AF7860002318460C37BD4675
:1016C00080BC704780B586B000AF0023FB75002357
:1016D0003B6101237B600023FB6000F043F90023A2
:1016E000BB60B968F868FFF7B1FA0346FB75FB7D8C
:1016F000002B14BF01230023DBB23B6115E0FFF791
:101700004DF90346FB75FB7D002B0ED0FB7D022BB4
:1017100009D1FFF7B7FA0346002B14BF01230023BA
:10172000DBB23B6101E001233B617B68002B02D00F
:101730003B69002BE3D03B69002B03D000BF7B68E3
:10174000002BFCD1FB7D18461837BD4680BD00BF7D
:1017500080B582B000AF104B7B60104B3B6007E060
:101760003B681A1D3A607A68111D796012681A6028
:101770003B680B4A9342F3D30A480B494FF00002EF
:101780008842B8BF40F8042BFADBFFF79BFF00BF8D
:101790000837BD4680BD00BFB881000000000020B2
:1017A000CC080020D0080020240C002080B400AF1A
:1017B000FEE700BF80B400AFFEE700BF80B400AF1B
:1017C000FEE700BF80B400AFFEE700BF80B485B085
:1017D00000AF78603960534BFB603B68032B00F22D
:1017E0009A8001A252F823F0F917000001190000B5
:1017F000071900000D1900007B68162B00F28A8083
:1018000001A252F823F000BF651800006B18000019
:101810007318000079180000811800008718000074
:101820008F180000951800009D180000A5180000F2
:10183000AB180000B1180000B7180000BD18000078
:10184000C5180000CB180000D3180000D9180000FC
:10185000DF180000E5180000EB180000F118000088
:10186000F7180000304BFB6049E04FF4E113FB60D8
:1018700045E02E4BFB6042E04FF41613FB603EE068
:101880002B4BFB603BE04FF46113FB6037E0294BCF
:10189000FB6034E04FF47A13FB6030E04FF49603C2
:1018A000FB602CE0244BFB6029E0244BFB6026E02E
:1018B000234BFB6023E0234BFB6020E04FF4E1036C
:1018C000FB601CE0204BFB6019E04FF4FA03FB6067
:1018D00015E01E4BFB6012E0124BFB600FE01C4B4F
:1018E000FB600CE01B4BFB6009E01B4BFB6006E060
:1018F0001A4BFB6003E04FF47A03FB6000BF09E082
:10190000084BFB6007E0164BFB6004E047F23053E6
:10191000FB6000E000BFFB6818461437BD4680BC82
:10192000704700BF001BB70040420F0080841E00BC
:10193000999E360000093D00404B4C0000204E00AF
:10194000808D5B0000C05D0000127A0080969800D8
:101950000080BB00C0E8CE00647ADA000024F40006
:10196000C0C62D0080B582B000AF414B1B6E7B60BE
:101970003F4B1B6E3B603B68002B3ADA3B6803F43D
:101980000063002B0FD07B689B0903F00F023B68BC
:101990001B0903F0070319461046FFF717FF02461D
:1019A000344B1A6002E0334B334A1A607B6803F40D
:1019B0008003002B57D03B6803F40063002B0BD04F
:1019C0002C4B1A683B68DB0D03F03F030133B2FB7D
:1019D000F3F3284A136046E0264B1A683B68DB0D98
:1019E00003F03F030133B2FBF3F35B08214A1360BA
:1019F00039E07B6803F40063002B0FD07B689B0900
:101A000003F00F027B681B0903F00303194610461D
:101A1000FFF7DCFE0246174B1A6002E0154B164A30
:101A20001A607B6803F48003002B1CD07B6803F4EE
:101A30000063002B0BD00F4B1A687B68DB0D03F0A3
:101A40000F030133B2FBF3F30A4A13600BE0094BB7
:101A50001A687B68DB0D03F00F030133B2FBF3F36D
:101A60005B08044A136000BF0837BD4680BD00BF55
:101A700000E00F40040000200084D71780B483B03A
:101A800000AF7860002318460C37BD4680BC704715
:101A900080B483B000AF786039603B684FF4005287
:101AA0005A60002318460C37BD4680BC704700BF03
:101AB00080B483B000AF7860012318460C37BD4670
:101AC00080BC704780B485B000AFF860B9607A60C0
:101AD000002318461437BD4680BC704780B487B0D9
:101AE00000AFF860B9607A6000237B6109E0BB68F1
:101AF0005A1CBA600B4A1268D2B21A707B69013361
:101B00007B61084B9B6903F01003002B03D17A69BA
:101B10007B689A42EBDB7B6918461C37BD4680BC6C
:101B2000704700BF00C0004080B400AF4FF0FF33EB
:101B30001846BD4680BC704780B485B000AF786061
:101B4000124B1B68002B02D1104B114A1A600F4B2D
:101B50001B68FB600D4B1B681A467B6813440733F8
:101B600023F00703BB60BB680A4A934205D30A4BC4
:101B70000C221A604FF0FF3303E0044ABB68136085
:101B8000FB6818461437BD4680BC7047140B002014
:101B900070140020F8FF0020200C002080B487B0D3
:101BA00000AFF860B9607A6000237B6108E0094902
:101BB000BB685A1CBA601B780B607B6901337B6180
:101BC0007A697B689A42F2DB7B6818461C37BD460F
:101BD00080BC704700C0004090B400AF2B4B93F81E
:101BE0003330022B0BD12A4A4FF000034FF0000490
:101BF000C2E90234254B002283F8332003E0234B53
:101C0000002283F83320214B93F83230022B0BD182
:101C10001F4A4FF000034FF00004C2E900341B4B91
:101C2000002283F8322003E0184B002283F8322090
:101C3000164B93F83130022B0BD1154A4FF00003AD
:101C40004FF00004C2E90434104B002283F8312025
:101C500003E00E4B002283F831200C4B93F8303018
:101C6000022B0BD10A4A4FF000034FF00004C2E9E7
:101C70000634064B002283F8302003E0034B002299
:101C800083F8302000BFBD4690BC7047980B002001
:101C9000F00B002080B586B000AFC7E90201C7E9AC
:101CA0000023D7E90023D7E9020101F091FA0346A6
:101CB000002B05D02D4801F049FB0023FB754FE0B8
:101CC000D7E90A23D7E9080101F082FA0346002B7D
:101CD00005D0274801F03AFB0023FB7540E0D7E927
:101CE0000E23D7E90C0101F073FA0346002B05D04F
:101CF000204801F02BFB0023FB7531E0D7E91223CC
:101D0000D7E9100101F064FA0346002B05D01A4808
:101D100001F01CFB0023FB7522E04FF000024FF0A6
:101D20000003D7E9140101F05DFA0346002B05D04A
:101D3000124801F00BFB0023FB7511E04FF000028D
:101D40000F4BD7E9160101F04DFA0346002B05D0E1
:101D50000C4801F041FB0023FB7501E00123FB75FA
:101D6000FB7D18461837BD4680BD00BF507F000080
:101D7000647F0000787F00008C7F0000A47F00005B
:101D800000005440B87F00002DE9F04F9DB010AF27
:101D9000F862A04B93F82E30002B2BD19D4B0122E3
:101DA00083F82E209B4B042283F82F209A4A4FF071
:101DB00000034FF00004C2E90034974A4FF00003DB
:101DC0004FF00004C2E90234934A4FF000034FF091
:101DD0000004C2E90434904A4FF000034FF00004BD
:101DE000C2E906348C4A4FF000034FF00004C2E908
:101DF0000834BCE3874B93F82F30013B082B00F2EB
:101E0000208301A252F823F02D1E0000DF1E0000E7
:101E1000351F00008F1F00008120000055250000A5
:101E2000DB200000F12100002D230000FB6A1B686D
:101E3000042B3CD1784A4FF000034FF00004C2E974
:101E40000834744B0A2283F82F20724B00229A85A3
:101E5000704B022283F830206E4B00229A626E4A49
:101E60004FF000036D4CC2E906346A4B022283F83E
:101E70003120684B03F11004D4E90034664AC2E90A
:101E80000434644B022283F83220624B18CB624A3E
:101E9000C2E900345F4B022283F833205D4B03F12B
:101EA0000804D4E900345C4AC2E9023454E3FB6A12
:101EB0001B68002B40F05083564B9B6A42F20F7216
:101EC000934240F24983544A4FF000034FF000041C
:101ED000C2E908344F4B062283F82F203CE3FB6A0B
:101EE0001B68042B0ED14C4A4FF000034FF0000446
:101EF000C2E90834474B052283F82F20484801F0F7
:101F00006BFA2BE3FB6A1B68002B40F02783414BE5
:101F10009B6A42F20F72934240F220833E4A4FF096
:101F200000034FF00004C2E908343A4B062283F85C
:101F30002F2013E3FB6A1B68052B12D1354B5B6A1C
:101F40000133344A5362334B012283F82F20314B43
:101F500000229A62304A4FF00003324CC2E9083442
:101F6000FEE2FB6A1B68002B40F0FA82294B9B6A59
:101F700042F20F72934240F2F382264B5B6A0133C6
:101F8000244A5362234B062283F82F20E8E2FB6A9F
:101F90001B68012B1CD11F4B092283F82F201D4ADF
:101FA0004FF00003204CC2E900341A4A4FF00003FE
:101FB0001E4CC2E90234174A4FF000031C4CC2E920
:101FC0000434144A4FF00003164CC2E90634C9E247
:101FD000FB6A1B68022B31D10E4B082283F82F209D
:101FE0000C4A4FF00003104CC2E90034094A4FF08C
:101FF0000003104CC2E90234064A4FF000030E4CB5
:10200000C2E90434034A4FF00003064CC2E9063427
:10201000A8E200BF980B0020F00B00200000F03F6A
:10202000D47F0000000049400000394000002E40ED
:10203000000024400000344000001440FB6A1B688C
:10204000032B40F08F829C4B072283F82F209A4A63
:102050004FF00003994CC2E90034974A4FF0000357
:10206000974CC2E90234944A4FF00003954CC2E900
:102070000434914A4FF00003934CC2E9063471E2F4
:10208000FB6A1B680A2B40F06F828B4B042283F89B
:102090002F208E4A4FF000034FF00004C2E90034B5
:1020A0008A4A4FF000034FF00004C2E90234874A25
:1020B0004FF000034FF00004C2E90434834A4FF0AC
:1020C00000034FF00004C2E90634804A4FF00003D9
:1020D0004FF00004C2E9083446E27D4B03F12804C6
:1020E000D4E90034C7E90834734BD3E90623C7E9C0
:1020F0000623774BD3E906896F4BD3E902AB744BC8
:10210000D3E90812C7E904126B4BD3E90445C7E9C8
:1021100002456F4BD3E90456C7E90056664BD3E935
:1021200000566B4B93F83830184600F069FD0A46AC
:102130000146674B03F13004D4E90034CDE90E3495
:10214000CDE90C12CDE90A56D7E90056CDE908567B
:10215000D7E90245CDE90645D7E90412CDE90412D5
:10216000CDE902ABCDE90089D7E90623D7E908011B
:10217000FFF790FD0346002B12D04F4B032283F84C
:102180002F204D4B00229A62524801F025F9524807
:1021900001F022F9484B5B6A0133474A5362E6E19A
:1021A000454B042283F82F20484A4FF000034FF09C
:1021B0000004C2E90034454A4FF000034FF0000428
:1021C000C2E90234414A4FF000034FF00004C2E973
:1021D00004343E4A4FF000034FF00004C2E90634D5
:1021E0003A4A4FF000034FF00004C2E90834BEE160
:1021F000374B03F12804D4E90034C7E908342E4BE7
:10220000D3E90623C7E90623314BD3E906892A4BD4
:10221000D3E902AB2E4BD3E90812C7E90412264BCF
:10222000D3E90445C7E90245294BD3E90456C7E978
:102230000056214BD3E90056254B93F83830184609
:1022400000F0DEFC0A460146214B03F13004D4E9DC
:102250000034CDE90E34CDE90C12CDE90A56D7E9A8
:102260000056CDE90856D7E90245CDE90645D7E93C
:102270000412CDE90412CDE902ABCDE90089D7E91A
:102280000623D7E90801FFF705FD0346002B25D0FB
:10229000094B032283F82F20074B00229A620D4836
:1022A00001F09AF80C4801F097F8034B5B6A013390
:1022B000014A53625BE100BF980B0020008041405F
:1022C000000024400000144000004940F00B0020B2
:1022D000580B0020F47F000014800000A64B04225D
:1022E00083F82F20A54A4FF000034FF00004C2E905
:1022F0000034A24A4FF000034FF00004C2E9023458
:102300009E4A4FF000034FF00004C2E904349B4A98
:102310004FF000034FF00004C2E90634974A4FF033
:1023200000034FF00004C2E9083420E1944B03F1AC
:102330002804D4E90034C7E908348F4BD3E90623D5
:10234000C7E906238E4BD3E906898B4BD3E902AB51
:102350008B4BD3E90812C7E90412874BD3E9044534
:10236000C7E90245864BD3E90456C7E90056824BBC
:10237000D3E90056824B93F83830184600F040FC01
:102380000A4601467E4B03F13004D4E90034CDE91E
:102390000E34CDE90C12CDE90A56D7E90056CDE945
:1023A0000856D7E90245CDE90645D7E90412CDE93B
:1023B0000412CDE902ABCDE90089D7E90623D7E9BC
:1023C0000801FFF767FC0346002B12D06A4B03227B
:1023D00083F82F20684B00229A626A4800F0FCFFC5
:1023E000694800F0F9FF644B5B6A0133624A53624B
:1023F000BDE0614B042283F82F20604A4FF00003B8
:102400004FF00004C2E900345C4A4FF000034FF083
:102410000004C2E90234594A4FF000034FF00004AF
:10242000C2E90434554A4FF000034FF00004C2E9FA
:102430000634524A4FF000034FF00004C2E908345A
:1024400095E0FB6A1B68062B0FD1FFF7C5FB4A4BD3
:10245000022283F82F20484B00229A62474A4FF00D
:1024600000034A4CC2E9083480E0FB6A1B68002B79
:102470000CD1414B9B8D42F20F72934206D9FFF76C
:10248000ABFB3D4B062283F82F206FE03A4B93F8CD
:102490003030012B21D0FB6A1B68002B1DD1364B3D
:1024A0009C6A354BD3E906014FF00002384B00F02F
:1024B0001DFC02460B461046194600F0B1FE0346CD
:1024C0009C420AD32D4A4FF000034FF00004C2E9AA
:1024D0000634294B012283F83020274B93F8313002
:1024E000012B0ED0FB6A1B68072B0AD1234A4FF041
:1024F00000034FF00004C2E904341F4B012283F8AB
:1025000031201D4B93F83230012B0ED0FB6A1B6833
:10251000092B0AD1194A4FF000034FF00004C2E919
:102520000034154B012283F83220134B93F83330DB
:10253000012B1BD0FB6A1B68082B17D10F4A4FF0E9
:1025400000034FF00004C2E902340B4B012283F870
:1025500033200BE000BF0AE000BF08E000BF06E048
:1025600000BF04E000BF02E000BF00E000BF00BF0A
:102570003437BD46BDE8F08F980B0020F00B0020EB
:10258000580B0020F47F0000148000000000494038
:1025900000005940B0B58EB000AFB04B93F840305A
:1025A00087F83230002387F8333000237B6333E031
:1025B000AA4A7B6B13443433197807F11C027B6BF6
:1025C00013440A461A70A54A7B6B134434331B78B4
:1025D000002B07D0A24A7B6B13441B78012B01D040
:1025E000012300E0002387F8313097F83330002BC7
:1025F00003D197F83130002B01D0012300E00023F4
:1026000087F8333007F110027B6B134497F83120C1
:102610001A707B6B01337B637B6B0A2BC8DD97F8E9
:102620003330002B00F0C88000237B630DE007F1FE
:1026300010027B6B13441B78D9B23A1D7B6B134499
:102640000A461A707B6B01337B637B6B0A2BEEDDD2
:1026500000237B633B795BB2012B1DD101237B639C
:102660007E4B9B6AB3F1FF3F04D07C4B9B6A0133E6
:102670007A4A9362794B9B8D43F6FE72934205D85A
:10268000764B9B8D01339AB2744B9A8500233B6045
:102690003B461846FFF778FB7B795BB2012B07D1ED
:1026A00001237B6301233B603B461846FFF76CFB2D
:1026B000BB795BB2012B07D101237B6302233B6013
:1026C0003B461846FFF760FBFB795BB2012B07D155
:1026D00001237B6303233B603B461846FFF754FB13
:1026E0003B7A5BB2012B07D101237B6304233B6060
:1026F0003B461846FFF748FB7B7A5BB2012B07D1BC
:1027000001237B6305233B603B461846FFF73CFBF8
:10271000BB7A5BB2012B07D101237B6306233B60AD
:102720003B461846FFF730FBFB7A5BB2012B07D123
:1027300001237B6307233B603B461846FFF724FBDE
:102740003B7B5BB2012B07D101237B6308233B60FA
:102750003B461846FFF718FB7B7B5BB2012B07D18A
:1027600001237B6309233B603B461846FFF70CFBC4
:10277000BB7B5BB2012B07D101237B630A233B6048
:102780003B461846FFF700FB7B6B002B14D0334B06
:102790005B6A002B10D0314B93F83F30002B0CBFFD
:1027A00001230023DBB21A462C4B83F83F202B4B2E
:1027B0005B6A013B294A536200237B630CE007F10B
:1027C0001C027B6B13441978254A7B6B13440A4621
:1027D0001A707B6B01337B637B6B0A2BEFDD214A25
:1027E00097F8323082F828301C4B1B6A184600F0EC
:1027F00017FA1D4B03F11004D4E900341A4623469E
:1028000000F0E6FC0346002B06D0144B1B6A002B9D
:1028100002DB154B18CB03E04FF000034FF0000430
:10282000C7E90A340D4B1B6A184600F0F9F9044653
:102830000D460D4BD3E902014FF000020B4B00F0A7
:10284000A1F802460B462046294600F0D5FC034677
:10285000002B0DD0014B00221A620EE0980B0020D5
:10286000E00B0020F00B0020080000200000F03FEB
:102870002A4B1B6A0133294A136201231C464FF07D
:1028800000024FF00003D7E90A0100F097FC03466D
:10289000002B01D000231C46E3B21A461F4B83F8DD
:1028A00034201F4B1A781D4B83F835201C4B5A7867
:1028B0001A4B83F836201A4B9A78184B83F8372036
:1028C000174B5A7A154B83F83820154BDA79134B8E
:1028D00083F83920124B1A7A104B83F83A20104BA8
:1028E0009A790E4B83F83B200D4B5A790B4B83F8AA
:1028F0003C200B4B1A79094B83F83D20084BDA78C2
:10290000064B83F83E20054B93F83F20034B83F89A
:10291000402000BF3837BD46B0BD00BF980B002037
:10292000580B002080B483B000AF00237B6010E020
:102930000F4A7B68134401221A700E4B93F8201043
:102940000D4A7B68134434330A461A707B6801339E
:102950007B607B680A2BEBDD064B93F82120064B4E
:1029600083F8402000BF0C37BD4680BC704700BFD5
:10297000E00B002008000020980B002081F00041AF
:1029800002E000BF83F0004330B54FEA41044FEA54
:10299000430594EA050F08BF90EA020F1FBF54EAEF
:1029A000000C55EA020C7FEA645C7FEA655C00F08B
:1029B000E2804FEA5454D4EB5555B8BF6D420CDD5C
:1029C0002C4480EA020281EA030382EA000083EADF
:1029D000010180EA020281EA0303362D88BF30BD7F
:1029E00011F0004F4FEA01314FF4801C4CEA1131D5
:1029F00002D0404261EB410113F0004F4FEA033334
:102A00004CEA133302D0524263EB430394EA050FBE
:102A100000F0A780A4F10104D5F1200E0DDB02FA2D
:102A20000EFC22FA05F2801841F1000103FA0EF2C1
:102A3000801843FA05F359410EE0A5F120050EF187
:102A4000200E012A03FA0EFC28BF4CF0020C43FAB8
:102A500005F3C01851EBE37101F0004507D54FF0C5
:102A6000000EDCF1000C7EEB00006EEB0101B1F515
:102A7000801F1BD3B1F5001F0CD349085FEA30005B
:102A80004FEA3C0C04F101044FEA445212F5800F66
:102A900080F09A80BCF1004F08BF5FEA500C50F103
:102AA000000041EB045141EA050130BD5FEA4C0CE6
:102AB000404141EB010111F4801FA4F10104E9D16F
:102AC00091F0000F04BF01460020B1FA81F308BF66
:102AD0002033A3F10B03B3F120020CDA0C3208DD32
:102AE00002F1140CC2F10C0201FA0CF021FA02F10D
:102AF0000CE002F11402D8BFC2F1200C01FA02F17D
:102B000020FA0CFCDCBF41EA0C019040E41AA2BFA1
:102B100001EB0451294330BD6FEA04041F3C1CDA69
:102B20000C340EDC04F11404C4F1200220FA04F089
:102B300001FA02F340EA030021FA04F345EA030133
:102B400030BDC4F10C04C4F1200220FA02F001FAF5
:102B500004F340EA0300294630BD21FA04F0294677
:102B600030BD94F0000F83F4801306BF81F4801110
:102B70000134013D4EE77FEA645C18BF7FEA655C83
:102B800029D094EA050F08BF90EA020F05D054EA55
:102B9000000C04BF1946104630BD91EA030F1EBF5A
:102BA0000021002030BD5FEA545C05D1400049415E
:102BB00028BF41F0004130BD14F580043CBF01F551
:102BC000801130BD01F0004545F0FE4141F4700137
:102BD0004FF0000030BD7FEA645C1ABF1946104612
:102BE0007FEA655C1CBF0B46024650EA013406BF13
:102BF00052EA033591EA030F41F4002130BD00BFD2
:102C000090F0000F04BF0021704730B54FF480648E
:102C100004F132044FF000054FF0000150E700BF0F
:102C200090F0000F04BF0021704730B54FF480646E
:102C300004F1320410F0004548BF40424FF000015B
:102C40003EE700BF42004FEAE2014FEA31014FEA9E
:102C500002701FBF12F07F4393F07F4F81F06051ED
:102C6000704792F0000F14BF93F07F4F704730B55C
:102C70004FF4607401F0004521F0004120E700BFEF
:102C800050EA010208BF704730B54FF000050AE076
:102C900050EA010208BF704730B511F0004502D577
:102CA000404261EB41014FF4806404F132045FEA79
:102CB000915C3FF4DCAE4FF003025FEADC0C18BF1E
:102CC00003325FEADC0C18BF033202EBDC02C2F114
:102CD000200300FA03FC20FA02F001FA03FE40EAA6
:102CE0000E0021FA02F11444C1E600BF70B54FF0A6
:102CF000FF0C4CF4E06C1CEA11541DBF1CEA135588
:102D000094EA0C0F95EA0C0F00F0DEF82C4481EAEF
:102D1000030621EA4C5123EA4C5350EA013518BF0F
:102D200052EA033541F4801143F4801338D0A0FBFC
:102D300002CE4FF00005E1FB02E506F00042E0FBA9
:102D400003E54FF00006E1FB03569CF0000F18BFAF
:102D50004EF0010EA4F1FF04B6F5007F64F5407457
:102D600004D25FEA4E0E6D4146EB060642EAC621EA
:102D700041EA55514FEAC52040EA5E504FEACE2E57
:102D8000B4F1FD0C88BFBCF5E06F1ED8BEF1004F5A
:102D900008BF5FEA500E50F1000041EB045170BDD6
:102DA00006F0004646EA010140EA020081EA03011A
:102DB000B4EB5C04C2BFD4EB0C0541EA045170BD16
:102DC00041F480114FF0000E013C00F3AB8014F190
:102DD000360FDEBF002001F0004170BDC4F10004D9
:102DE000203C35DA0C341BDC04F11404C4F120055A
:102DF00000FA05F320FA04F001FA05F240EA0200B5
:102E000001F0004221F0004110EBD37021FA04F6EA
:102E100042EB06015EEA430E08BF20EAD37070BDA4
:102E2000C4F10C04C4F1200500FA04F320FA05F003
:102E300001FA04F240EA020001F0004110EBD37005
:102E400041F100015EEA430E08BF20EAD37070BD75
:102E5000C4F1200500FA05F24EEA020E20FA04F34E
:102E600001FA05F243EA020321FA04F001F00041FD
:102E700021FA04F220EA020000EBD3705EEA430E6E
:102E800008BF20EAD37070BD94F0000F0FD101F09D
:102E90000046400041EB010111F4801F08BF013CD6
:102EA000F7D041EA060195F0000F18BF704703F014
:102EB0000046520043EB030313F4801F08BF013D9B
:102EC000F7D043EA0603704794EA0C0F0CEA135557
:102ED00018BF95EA0C0F0CD050EA410618BF52EA11
:102EE0004306D1D181EA030101F000414FF0000017
:102EF00070BD50EA410606BF1046194652EA430625
:102F000019D094EA0C0F02D150EA013613D195EA98
:102F10000C0F05D152EA03361CBF104619460AD1E0
:102F200081EA030101F0004141F0FE4141F47001EA
:102F30004FF0000070BD41F0FE4141F4780170BDDA
:102F400070B54FF0FF0C4CF4E06C1CEA11541DBF3F
:102F50001CEA135594EA0C0F95EA0C0F00F0A7F841
:102F6000A4EB050481EA030E52EA03354FEA01316E
:102F700000F088804FEA03334FF0805545EA131381
:102F800043EA12634FEA022245EA111545EA106549
:102F90004FEA00260EF000419D4208BF964244F1E0
:102FA000FD0404F5407402D25B084FEA3202B61AFF
:102FB00065EB03055B084FEA32024FF480104FF4D3
:102FC000002CB6EB020E75EB030E22BFB61A754647
:102FD00040EA0C005B084FEA3202B6EB020E75EBDA
:102FE000030E22BFB61A754640EA5C005B084FEA42
:102FF0003202B6EB020E75EB030E22BFB61A75460F
:1030000040EA9C005B084FEA3202B6EB020E75EB19
:10301000030E22BFB61A754640EADC0055EA060EDA
:1030200018D04FEA051545EA16754FEA06164FEA1D
:10303000C30343EA52734FEAC2025FEA1C1CC0D1C9
:1030400011F4801F0BD141EA00014FF000004FF056
:10305000004CB6E711F4801F04BF01430020B4F117
:10306000FD0C88BFBCF5E06F3FF6AFAEB5EB030CCF
:1030700004BFB6EB020C5FEA500C50F1000041EBCC
:10308000045170BD0EF0004E4EEA113114EB5C0499
:10309000C2BFD4EB0C0541EA045170BD41F480116C
:1030A0004FF0000E013C90E645EA060E8DE60CEA74
:1030B000135594EA0C0F08BF95EA0C0F3FF43BAF91
:1030C00094EA0C0F0AD150EA01347FF434AF95EA48
:1030D0000C0F7FF425AF104619462CE795EA0C0F2C
:1030E00006D152EA03353FF4FDAE1046194622E7F9
:1030F00050EA410618BF52EA43067FF4C5AE50EAD3
:1031000041047FF40DAF52EA43057FF4EBAE12E7C2
:103110004FF0FF3C06E000BF4FF0010C02E000BFA3
:103120004FF0010C4DF804CD4FEA410C7FEA6C5C86
:103130004FEA430C18BF7FEA6C5C1BD001B050EA29
:10314000410C0CBF52EA430C91EA030F02BF90EA14
:10315000020F0020704710F1000F91EA030F58BFD3
:10316000994208BF90422CBFD8176FEAE37040F035
:10317000010070474FEA410C7FEA6C5C02D150EAD3
:10318000013C07D14FEA430C7FEA6C5CD6D152EA8E
:10319000033CD3D05DF8040B704700BF8446104653
:1031A00062468C461946634600E000BF01B5FFF752
:1031B000B7FF002848BF10F1000F01BD4DF808ED22
:1031C000FFF7F4FF0CBF012000205DF808FB00BFF3
:1031D0004DF808EDFFF7EAFF34BF012000205DF84D
:1031E00008FB00BF4DF808EDFFF7E0FF94BF01209A
:1031F00000205DF808FB00BF4DF808EDFFF7CEFF9B
:1032000094BF012000205DF808FB00BF4DF808EDD9
:10321000FFF7C4FF34BF012000205DF808FB00BFAA
:103220004A0011D212F5001211D20DD56FF4787345
:10323000B3EB62520ED44FEAC12343F0004343EA9A
:10324000505323FA02F070474FF00000704750EAE5
:10325000013002D14FF0FF3070474FF0000070474F
:10326000844641EA000313F0030349D1403A23D3D3
:103270000B6803604B6843608B688360CB68C360F6
:103280000B6903614B6943618B698361CB69C361DE
:103290000B6A03624B6A43628B6A8362CB6AC362C6
:1032A0000B6B03634B6B43638B6B8363CB6BC363AE
:1032B00040304031403ADBD230320BD30B680360F0
:1032C0004B6843608B688360CB68C36010301031FB
:1032D000103AF3D20C3205D351F8043B40F8043BCA
:1032E000043AF9D2043208D0D2071CBF11F8013BCE
:1032F00000F8013B01D30B8803806046704700BF94
:10330000082A13D38B07B1D010F00303AED0C3F15A
:103310000403D21ADB071CBF11F8013B00F8013B84
:10332000A4D331F8023B20F8023B9FE7043AD9D3FB
:10333000013A11F8013B00F8013BF9D20B78037018
:103340004B7843708B788370604670470FB410B52C
:10335000074B82B004AC54F8042B186823468168EC
:10336000019400F06FF802B0BDE8104004B070475F
:1033700058040020F0B5054689B008460C4600F018
:1033800033F8431C134F0393AB6B012604A90222AD
:1033900004940590AC680697079601910292ABB130
:1033A000A3899A0406D4626E43F4005322F40052B7
:1033B000A38162662146284601AA02F09BFE0028EE
:1033C00014BF4FF0FF300A2009B0F0BD284602F0CC
:1033D00051FDE5E72C800000024B01461868FFF71D
:1033E000C9BF00BF5804002020F0030110F0030003
:1033F000C0F1000051F8043B00F1040C4FEACC0C82
:103400006FF000021CBF22FA0CF213434FF0010CC4
:103410004CEA0C2C4CEA0C4CA3EB0C0222EA030203
:1034200012EACC1204BF51F8043B0430F4D0C2F1CC
:10343000000102EA0102B2FA82F2C2F11F0200EBBD
:10344000D20070472DE9F04FBFB01C468A46089263
:103450000546099003F002F803680D94184614938A
:10346000FFF7C2FF15901DB1AB6B002B00F0B583C9
:10347000BAF80C2093B299040AD4DAF8641042F432
:10348000005321F40051AAF80C30CAF864109BB222
:103490001A0740F1DE82DAF81020002A00F0D98203
:1034A00003F01A030A2B00F0E28200231A460DF102
:1034B000B809119316930A9323932293CDF884901D
:1034C00012921392089C2378002B00F0EB81252B9D
:1034D00002D1E7E1252B03D014F8013F002BF9D1ED
:1034E000089BE51A85B1229B239A013308992A4447
:1034F000072B89E822002392229300F3278309F106
:1035000008090A9B2B440A932378002B00F0EA81D8
:103510004FF0FF3B5E4600231A468DF86730194690
:103520000B930693631C184663780130A3F12004C3
:10353000582C00F2FB85DFE814F0A605F905F90523
:10354000AE05F905F905F905F905F905F90559007B
:103550004F05F9056600A203F905BC03C203C203C7
:10356000C203C203C203C203C203C203C203F905FA
:10357000F905F905F905F905F905F905F905F9055B
:10358000F905D2031904F9051904F905F905F90536
:10359000F9055504F905F9055C04F905F905F9057E
:1035A000F905F905A604F905F905D604F905F905A3
:1035B000F905F905F905F905F905F905F905F9051B
:1035C00032050A0519041904190480050A05F905CC
:1035D000F9051305F9051D0546056C005405F905A7
:1035E0005B05F9058705F905F90590050D9D2B6823
:1035F0001C460B932B46002C03F104030D9306DAB3
:103600000B9B5B420B93069B43F0040306930378EA
:103610008BE70D9A00270890069830217823BE4248
:1036200014688DF86810B34602F104024FF00005EB
:103630008DF869308DF8677040F00201C0F28D8519
:1036400020F0800141F00201069154EA05010D923B
:103650000F93AC4800F032812EAE230943EA057384
:10366000290904F00F020D461C46835C06F8013D53
:1036700054EA0503F1D12EAB9B1B0C930C9B5B45CD
:10368000B8BF5B4607930023109317B1079B013324
:103690000793069B13F002030E9302D0079B02339D
:1036A0000793069B13F0840840F01A810B9B079A3E
:1036B0009D1A002D40F31481102D2399229A924FC8
:1036C00021DD4B461024B146099E04E0103D102D2B
:1036D00003F1080315DD01321031072A23912292EC
:1036E0001F605C60F2DD21AA5146304604F08CF880
:1036F000002840F0FE80103D102D2EAB2399229A19
:10370000E9DC4E46994601326C18072A239422922E
:10371000C9F80070C9F8045000F3D8809DF86770AC
:1037200009F1080977B1229B013401330DF16701DA
:103730000122072B2394229389E8060000F32982B3
:1037400009F108090E9B6BB1229B023401331AA9BF
:103750000222072B2394229389E8060000F30D82AE
:1037600009F10809B8F1800F00F031810C9BC3EB1F
:103770000B07002F37DD102F229BDFF8908125DD0E
:1037800042464FF0100BB046099D164604E0103F2C
:10379000102F09F1080916DD01331034072B23948B
:1037A000229389E84008F2DD21AA5146284604F018
:1037B0002BF8002840F09D80103F102F0DF1B80924
:1037C000239C229BE8DC32464646904601333C442B
:1037D000072B23942293C9F80080C9F8047000F3E2
:1037E000C08109F10809069BDD0500F19180229B4B
:1037F0000C9901330C44072B2394C9F80060C9F8D5
:103800000410229300F3DD8109F10809069B580793
:1038100034D50B9B079A9D1A002D2FDD102D229B6E
:10382000394F20DD1026DDF8248004E0103D102DF6
:1038300009F1080917DD01331034072B2394229373
:10384000C9F80070C9F80460F0DD21AA514640466D
:1038500003F0DAFF00284CD1103D102D0DF1B8090E
:10386000239C229BE7DC01332C44072B23942293D7
:10387000C9F80070C9F8045000F34D840A9B0B9AF4
:1038800007998A42ACBF9B185B180A93002C40F042
:103890005481089C0023229323780DF1B809002B52
:1038A0007FF415AE089C2FE60027BB458DF86770A6
:1038B000C0F25D84069B23F080030693BBF1000FEA
:1038C00000F02184002400250027C5E621AA5146E6
:1038D000099803F099FF60B99DF867700DF1B80978
:1038E000239C1FE7239B23B1099821AA514603F08B
:1038F0008BFFBAF80C30590600F1F9860A983FB0F0
:10390000BDE8F08F7480000040800000308000002F
:103910000F9B652B40F3B980129813990022002366
:10392000FFF74CFC002800F05C81229BC449013366
:1039300001340122072B2394229389E8060000F327
:10394000788609F108091B9B119A934203DB069BB9
:10395000D8077FF55BAF229B15990133149A0C446D
:10396000072B2394C9F80020C9F80410229300F310
:10397000058709F10809119B5D1E002D7FF746AFF1
:10398000102D229BDFF8BC8240F3108147461026A1
:10399000DDF8248005E009F10809103D102D40F301
:1039A000048101331034072B23942293C9F800704B
:1039B000C9F80460EFDD21AA5146404603F024FF18
:1039C000002896D10DF1B809239C229BE5E70B9BBB
:1039D000079A9F1A002F7FF7C9AE102F229BDFF89E
:1039E000648228DD41462246B0461025099C0E46D9
:1039F00004E0103F102F09F1080918DD01331032DF
:103A0000072B23922293C9F80060C9F80450F0DD17
:103A100021AA5146204603F0F7FE00287FF469AF43
:103A2000103F102F0DF1B809239A229BE6DC1446B3
:103A300032464646904601333C44072B239422935A
:103A4000C9F80080C9F8047000F3BF8409F10809BF
:103A50008CE65146099801F0B7F8002840F04786F7
:103A6000BAF80C3003F01A030A2B7FF41EADBAF932
:103A70000E30002BFFF619AD2346089A51460998DF
:103A800001F06CF83FB0BDE8F08F119B229D012B37
:103A900004F1010405F1010540F348840123072DD9
:103AA0002394C9F800602295C9F8043000F35984C2
:103AB00009F10809159A0135149B1444072D239424
:103AC0002295C9F80030C9F8042000F3708409F188
:103AD00008090023129813990022FFF76FFB119B2E
:103AE000002800F0E7825E1E002E40F3F282102EC6
:103AF000DFF8508140F343841027DDF824B005E05F
:103B000009F10809103E102E40F3398401351034B4
:103B1000072D23942295C9F80080C9F80470EFDDC1
:103B200021AA5146584603F06FFE00287FF4E1AE0B
:103B30000DF1B809239C229DE4E721AA514609987A
:103B400003F062FE00283FF4A4AED2E621AA51465B
:103B5000099803F059FE00287FF4CBAE0DF1B809A7
:103B6000CFE421AA5146099803F04EFE00287FF4C5
:103B7000C0AE0DF1B809239C35E621AA514609983B
:103B800003F042FE00287FF4B4AE0DF1B809239C87
:103B9000E8E521AA5146099803F036FE00287FF493
:103BA000A8AE0DF1B809239CCCE5B84601332C44EE
:103BB000072B23942293C9F80080C9F804507FF79B
:103BC00023AE21AA5146099803F01EFE00287FF477
:103BD00090AE239C0DF1B80918E6099802F04AF955
:103BE00046E41B9D002D40F33385109B119A9342B0
:103BF000A8BF1346002B1D460DDD229B2C4401332C
:103C0000072B2394C9F80060C9F80450229300F3ED
:103C1000E28509F10809109B002DA8BF5B1B002B52
:103C20001D4640F32183102D229BDFF8188040F3BE
:103C3000F28442461027B046DDF824B0164609E06B
:103C4000908000003080000009F10809103D102D1F
:103C500040F3DE8401331034072B2394229389E848
:103C6000C000F1DD21AA5146584603F0CDFD0028E1
:103C70007FF43FAE0DF1B809239C229BE6E7037861
:103C8000451C2A2B00F01D87A3F13004092C98BF96
:103C9000002600F27A8615F8013B06EB860604EB57
:103CA0004606A3F13004092CF5D946EAE676284603
:103CB0003CE4069B43F080030693037835E4A3F1CC
:103CC000300400231D4610F8013B05EB850504EB8D
:103CD0004505A3F13004092CF5D90B9526E40F9383
:103CE000B3460890002A40F03387069B43F0100348
:103CF0000693069B9F0640F187820D9C073424F0B3
:103D00000704D4E9002304F108011D4614460D916F
:103D1000002A73F10003C0F26583BBF1000F9DF828
:103D20006770C0F29182069B23F08003069354EAE9
:103D3000050300F0CD80002D08BF0A2CC0F0CD8017
:103D40002EAE204629460A22002303F071FF3032AE
:103D500006F8012D2046294600230A2203F068FFB9
:103D600004460D4654EA0503EBD184E40F93B346B1
:103D70000890002A40F0E886069B0D9C1D0704F180
:103D8000070440F1168424F0070303F108020D92A2
:103D90001A685B6812921393129D139C2846214661
:103DA00003F078FC012840F03183284621460022A8
:103DB0000023FFF70DFA002840F080859DF867701A
:103DC0000699B84E21F08001B74B06910F99032256
:103DD0004FF0000B07924729D8BF1E460C92CDF832
:103DE00040B052E4069B43F0080306930378FFF7C4
:103DF0009CBB0F93B3460890002A40F0A186069B17
:103E000043F010030693069A12F0200300F0E081BD
:103E10000D9C0027073424F0070303F10801BB457C
:103E20000D91D3E900458DF867700BDB22F080031C
:103E3000069354EA050306D1BBF1000F00F052854A
:103E40000024002500272EAEE20842EA4572E90868
:103E500004F007030D461446303354EA050206F811
:103E6000013DF1D1069AD2077FF505AC302B3FF426
:103E700002AC3022731E06F8012C2EAAD21A0C9224
:103E80001E46FFF7FBBB0F93B3460890002A40F095
:103E90005386069B43F010030693069A12F0200304
:103EA00000F07B810D9C0027073424F0070303F109
:103EB0000801BB450D91D3E900458DF86770C0F24C
:103EC000C38122F08003069354EA05037FF433AFE5
:103ED000BBF1000F00F0188100243EAE303406F82C
:103EE000414DFFF7C8BB0F93B3460890002A40F03E
:103EF0001F86069B6D489C0640F1BA800D9C0734D6
:103F000024F0070303F108020D92D3E90045069A55
:103F100012F0010700F02F8154EA05033FF4C4AC0E
:103F20009DF83C2000278DF86920069A3023BB4578
:103F30008DF868308DF8677042F00203C0F2AF84EC
:103F400022F0800343F002030693FFF785BB0F9333
:103F5000B3460890002A3FF4CCAE8DF86710C8E64F
:103F600003786C2B00F00284069C44F01004069445
:103F7000FFF7DBBA0890002A40F0CB85069B9F062E
:103F800040F122830D9A134604330D930A9B116866
:103F9000DD171A462B46C1E90023FFF793BA0D99A6
:103FA0000F930A68002308901F4601208DF86730A0
:103FB0009B4610930B1D07908DF890200D930C904D
:103FC00024AEFFF766BB0F93B3460890002A3FF478
:103FD0001AAF8DF8671016E7037801222B21FFF73F
:103FE000A4BA069B43F0200306930378FFF79DBA1B
:103FF0000D9AB346166800250F9308908DF8675008
:10400000141D002E00F01184BBF1000FC0F2C38319
:104010005A462946304602F041FD002800F05684F9
:10402000AB46831B0C9323EAE3730D940793CDF8FF
:1040300040B09DF86770FFF728BB069B43F0400334
:1040400006930378FFF771BA0F93B3460890002ADE
:104050003FF423AF8DF867101FE70F93B346089026
:10406000002A40F05D85069B11489C063FF546AF4F
:10407000069BD90640F1BF820D9A002513460433F2
:1040800014680D9343E7037800297FF44EAA0122B8
:104090002021FFF74ABA069B43F0010306930378F9
:1040A000FFF743BA54800000508000006080000099
:1040B00074800000013B013501361C44072DC9F80E
:1040C000006022952394C9F8043000F3638109F15C
:1040D0000809169A013514441DAB072D2394229527
:1040E000C9F80420C9F800307FF78EAB21AA5146E9
:1040F000099803F089FB00287FF4FBAB0DF1B809A8
:10410000239CFFF783BB5F464FF0000BCDF830B028
:104110002EAEFFF7B3BA21AA5146099803F074FBFB
:1041200000287FF4E6AB239CFFF7A8BB0F93089011
:10413000002A40F0F9840F9A002A3FF4D3AB002301
:1041400001211F4607918DF890208DF867309B461E
:1041500010930C9124AEFFF79CBAAA4806910F93D6
:1041600054EA05030D924FF000077FF475AA00246E
:104170000025FFF771BABBF1000F8DF86770C0F230
:10418000658222F08003069354EA05037FF464AA53
:10419000BBF1000F7FF496ABB5E7069911F0100262
:1041A0003FD00D98BBF1000F024604688DF86730D0
:1041B00002F104024FF00005C0F2778321F0800184
:1041C000069154EA05010D921F467FF4B4AD7FE6D7
:1041D000069911F0100200F0BA810D98BBF1000FA2
:1041E000024604688DF8673002F104024FF00005C2
:1041F000C0F2588321F08001069154EA05010D9226
:104200003FF41AAE1F461EE6069BDE0640F185818E
:104210000D9A13461C680433E5170D9322462B466E
:1042200076E5069911F0400740F078820D9ABBF1CF
:10423000000F134614688DF8677003F104034FF004
:10424000000580F27A810D9354EA05037FF473AD83
:1042500043E621AA5146099803F0D6FA00287FF4D4
:1042600048AB239C0DF1B809109A1B9B32441746AA
:10427000119A934249DB069AD20746D411990E440B
:10428000F51BCB1A9D42A8BF1D46002D2E460DDD05
:10429000229A2C440132072A2394C9F80070C9F8E5
:1042A0000450229200F3D08209F10809002EB4BF15
:1042B0001D469D1B002D7FF7A9AA102D229BDFF81C
:1042C00048817FF773AC47461026DDF8248005E06F
:1042D00009F10809103D102D7FF767AC0133103448
:1042E000072B23942293C9F80070C9F80460EFDD0E
:1042F00021AA5146404603F087FA00287FF4F9AA24
:104300000DF1B809239C229BE4E7229A159801320B
:1043100014990444072A2394C9F80010C9F804002A
:10432000229200F3758209F10809A7E7069BDF07CF
:104330003FF5B4AB0123072D2394C9F80060229503
:10434000C9F804307FF7C3AE21AA5146099803F09B
:104350005BFA00287FF4CDAA0DF1B809239C229DB9
:10436000B7E621AA5146099803F04EFA00287FF4D7
:10437000C0AA0DF1B809239C229DFFF79BBB013514
:104380003444072D23942295C9F80080C9F80460AD
:104390007FF79DAE21AA5146099803F035FA00280F
:1043A0007FF4A7AA239C229D0DF1B80991E621AACA
:1043B0005146099803F028FA00287FF49AAA0DF1D3
:1043C000B809239C229DFFF784BB21AA5146099876
:1043D00003F01AFA00287FF48CAA0DF1B809239C87
:1043E000FFF7C4B964424FF02D0765EB4505BBF1FB
:1043F000000F8DF86770FFF69EAC069B23F08003DC
:10440000069398E47480000030800000129813999D
:1044100003F040F9002800F06E810F9BBBF1FF3FD5
:1044200023F02003079300F0B482472B04D1BBF1A3
:10443000000F08BF4FF0010B069BDDF8488043F4E6
:1044400080730E93139B1F1EB6BF03F1004700231A
:104450002D2317930F9B662B00F0A182462B00F0B3
:10446000FD82079B1FA8452B18BF5D461CA908BFEE
:104470000BF10105049003911BA802213B46029019
:10448000424601950091099800F096FC0F9B064664
:10449000672B00F00D820F9B472B00F0EE81741903
:1044A0004046394600220023FEF788FE002840F0EF
:1044B0000B821F9B9C4206D930215A1C1F921970F7
:1044C0001F9B9C42F9D89B1B1193079B472B00F025
:1044D000DF810F9B652B40F31A830F9B662B1B9B81
:1044E000109300F08482109A11998A42C0F270826F
:1044F000069BDB0700F1DD8222EAE2730C92672261
:104500000F92179A002A40F0AE8107930E9B9346B4
:1045100006939DF86770FFF7B8B8069B0D9A13F0E5
:10452000400F13463FF476AEB2F900400433E5176E
:104530000D9322462B46FFF7EBBB069A0D9322F014
:104540008002069254EA05027FF4F5ABC0E40699B6
:1045500011F0400716D00D98BBF1000F03460488F8
:104560008DF8672003F104034FF00005C0F2FB80D3
:1045700021F08001069154EA05010D933FF45CACF3
:10458000174660E40D9ABBF1000F134614688DF8CE
:10459000677003F104034FF00005C0F2E480069A4F
:1045A0000D9322F08002069254EA05027FF44BAC90
:1045B00042E424F00704236812936368139304F120
:1045C00008030D93FFF7E8BB069BDE060BD4069BA2
:1045D0005D0608D50D9A136804320D92BDF82820A7
:1045E0001A80FEF76FBF0D9A136804320D920A9A73
:1045F0001A60FEF767BF0D9A069B002513F0400F67
:10460000134603F104030CBF146814880D937EE471
:1046100032464646904601332C44072B239422937E
:10462000C9F80080C9F804503FF713AE09F1080932
:104630001AE621AA5146099803F0E6F800287FF40B
:1046400058A90DF1B809239CFFF77DB90D9A87E5AC
:10465000229BAC49013301340122072B239422937E
:1046600089E8060072DC09F108092DB9119B1BB914
:10467000069BD9077FF5CAA8229B15990133149A86
:104680000C44072B2394C9F80020C9F80410229386
:1046900000F36D8109F108096D42002D40F38D8012
:1046A000102DDFF8708240F3A68042461027B046F6
:1046B000DDF824B0164605E009F10809103D102D7B
:1046C00040F3968001331034072B2394229389E81A
:1046D000C000F1DD21AA5146584603F095F80028A4
:1046E0007FF407A90DF1B809239C229BE6E74FF060
:1046F000FF30FFF704B90699834E21F08001834B08
:1047000006910F9903228346079210904729D8BF3C
:104710001E460C929DF86770FEF7B7BF0D98BBF16F
:10472000000F034604888DF8672003F104034FF05F
:104730000005C0F2318121F08001069154EA0501A3
:104740000D9317467FF4F7AAFFF7C2BB21AA514683
:10475000099803F059F800287FF4CBA80DF1B809A7
:104760001B9D239C81E70D93FFF76CBB069B0130DB
:1047700043F0200306930378FEF7D7BE21AA5146E3
:10478000099803F041F800287FF4B3A80DF1B809A7
:10479000239CFFF7F0B83046FEF726FEAB460346F3
:1047A00040E421AA5146099803F02EF800287FF42E
:1047B000A0A8239C229B0DF1B809119901330C4448
:1047C000072B23942293C9F80060C9F804107FF7DF
:1047D0001BA8FFF7F6B921AA5146099803F014F86F
:1047E00000287FF486A80DF1B809239CFFF713BABF
:1047F00032464646904601332C44072B239422939D
:10480000C9F80080C9F80450CBDC09F10809D4E7E5
:1048100021AA5146099802F0F7FF00287FF469A801
:104820000DF1B8091B9B239C28E55B46062B28BF8E
:1048300006230C9323EAE373B346374610960D9490
:104840000793334EFEF721BF21AA5146099802F083
:10485000DBFF00287FF44DA81B9B119A239CD31AE1
:104860000DF1B80922E507930E9B2D2706938DF8CD
:1048700067704FF0000BFEF709BF069BDC0700F1E5
:10488000FE801F9B9B1B1193079B472B40F03F8192
:104890001B9BD81C40DB9B453EDB109323E6069315
:1048A000FEF7DABE0D92FFF7CDBA0D921F46CBE4AC
:1048B000069BDA073FF5F3AD1F9B04E62D231F4649
:1048C0008DF86730FFF77CBA2346FCE52BEAEB73E3
:1048D000CDF830B0079383460D9410909DF8677023
:1048E000FEF7D3BE069B5F46DB0705D53EAE302301
:1048F00006F8413DFEF7BFBECDF830B02EAEFEF754
:10490000BDBE00BF908000005C80000058800000A9
:1049100088800000308000000F9A023A0F92013B1D
:104920009DF83C20002B1B93B8BF5B428DF8742090
:10493000B4BF2D222B22092B8DF8752064DC303377
:1049400030228DF877308DF876201EAB1DAA9B1A89
:10495000119A1693012A13440C9340F3BF800C9BC9
:10496000002201330C93109223EAE373C9E521AAD4
:104970005146099802F048FF00287EF4BAAF0DF1C5
:10498000B8091B9D239C229B86E628460026FEF73D
:10499000CDBD4FF0060B4FE50D93174654E41FA80D
:1049A0001CA9049003911BA80321029042463B4698
:1049B000CDF804B00091099800F0FEF95D46064676
:1049C00000EB0B043378302B66D01B9D2C4467E53D
:1049D000109B6722002BD8BFC3F10205119BC8BFF3
:1049E0000125EB180C930F9223EAE37389E5002B62
:1049F0007EDDBBF1000F47D1069AD10744D41A4699
:104A000023EAE3730C927CE50DF183000446524ADD
:104A100082FB0321DA17C2EBA10101EB8102A3EBB8
:104A20004202303209290B4604F8012DEFDC224600
:104A30003033DBB202F8013D90426ED90DF17601C0
:104A4000224601E012F8013B904201F8013BF9D106
:104A5000431C1B1B0DF17602134477E71FA81CA90A
:104A6000049003911BA80321029042463B46CDF8D7
:104A700004B00091099800F09FF95D4606460F9B2F
:104A80007419462B9ED00BE5109B0BF101052B44AE
:104A90000C9323EAE37334E54046394600220023B1
:104AA000FEF78CFB002890D1C5F101051B952C4425
:104AB000F6E4109B672201330C930F9223EAE37311
:104AC0001FE50D9C437826680434002E0D9428467B
:104AD000BEF62BAD4FF0FF36FEF727BD069B13F059
:104AE00001037FF43CAF10930C9B23EAE37308E5CA
:104AF000BBF1000F05D1069BDA0702D401230C930A
:104B0000FFE40BF102030C9323EAE373F9E41B9B2C
:104B100005E78DF86710FFF731BA0DF1760315E759
:104B20008DF86710FFF79FBA8DF86710FFF703BB8A
:104B30008DF86710FFF7DDB98DF86710FFF7A9B999
:104B40008DF86710FFF75BB98DF86710FFF714B9A0
:104B50008DF86710FFF7C9B867666666F0B50C4652
:104B60008989ADF26C4D656E21F00201666AADF87F
:104B70000C10E169E78919950025079109960695BA
:104B80001AAE4FF480656946009604960295059525
:104B9000ADF80E700646FEF755FC051E07DB3046E5
:104BA000694601F0D3F8002818BF4FF0FF35BDF873
:104BB0000C305B0603D5A38943F04003A38128464C
:104BC0000DF26C4DF0BD00BF38B52F4B054618688F
:104BD0000C4610B1836B002B36D0A28993B2180714
:104BE0000CD52069A8B113F001021ED06369002220
:104BF0005B42A361A260F0B1002038BDD9063AD56E
:104C0000580724D4206942F00803A3819BB20028EE
:104C1000E9D103F42072B2F5007FE4D028462146A2
:104C200001F020FCA3892069DDE7990758BF62697C
:104C3000A2600028E0D1A3891A06DED543F0400324
:104C4000A3814FF0FF3038BD01F014F9C5E7216BA7
:104C500049B104F14003994203D0284601F062F9BA
:104C6000A28900232363206922F02402002392B248
:104C700084E80900C7E742F0400209232B604FF0A7
:104C8000FF30A28138BD00BF580400202DE9F04F4D
:104C900003690F6983B09F4200F38980013F01F1EE
:104CA000140600F1140A56F827305AF82720013369
:104CB000B2FBF3F8BB00009306EB030953440193E6
:104CC000B8F1000F3BD000231C46B446D6465CF832
:104CD00004BBDEF800501FFA8BF208FB02324FEAE9
:104CE0001B4B130C08FB0B3392B2A41A1FFA83FB65
:104CF000AAB22244CBEB154404EB224492B242EA1E
:104D00000442E1454EF8042B4FEA24444FEA134392
:104D1000DDD2009B5AF803308BB9019C231F9A45C2
:104D20000CD254F8043C4BB9A4F1080302E01A6811
:104D3000043B1AB99A4507F1FF37F8D307610446D7
:104D400002F0B6F900282EDB00235546194608F17B
:104D5000010856F8042B2B6890B2081A120C99B26D
:104D6000C2EB1343421803EB224392B242EA0342DE
:104D7000B14545F8042B4FEA2341EAD25AF82720DF
:104D80000AEB87037AB91A1F92450BD253F8042C09
:104D900042B9083B02E01A68043B1AB99A4507F188
:104DA000FF37F8D32761404603B0BDE8F08F0020FD
:104DB00003B0BDE8F08F00BF2DE9F04F016C99B052
:104DC000814692469B46259C49B1426C0123934003
:104DD0008B604A6001F086FF0023C9F84030BBF1C8
:104DE000000FD84633DB00232360A34B1A4608EAA2
:104DF0000303934214D00022002350465946FEF785
:104E0000DDF9054648B3249A01231360269B002B45
:104E100000F0C58099481860013819B0BDE8F08FDE
:104E200042F20F73249A1360BAF1000F00F0A280CF
:104E30009348269B002BF0D0C378002B00F0B18064
:104E400000F10803269A136019B0BDE8F08F012322
:104E50002BF000482360C346C7E716AA17AB0192A0
:104E6000009352465B46484602F0D6F95FEA185472
:104E7000099040F08880169D179C2C4404F2324320
:104E8000202B40F38A82C3F1400304F2124008FA57
:104E900003F82AFA00F040EA0800FDF7B1FE01230A
:104EA000013CA1F1F8710F930022764BFDF76AFDEA
:104EB0006BA3D3E90023FDF719FF6BA3D3E900230C
:104EC000FDF762FD064620460F46FDF7A9FE68A3E2
:104ED000D3E90023FDF70AFF02460B463046394668
:104EE000FDF752FD06460F4602F07AFE00220390BF
:104EF000002330463946FEF76BF9002840F029823E
:104F0000039E162E00F222825F49524601EBC60133
:104F10005B46D1E90001FEF779F9002800F04282F2
:104F2000731E039300230D932C1B631E049300F147
:104F30002B8200230693039B002BC0F21C82049A51
:104F40000C9311461944002304910B93229B092BC7
:104F500029D8052B40F35286043B22930025229B3F
:104F6000023B032B00F22F86DFE813F02703200219
:104F700032035304424B454AC8F31300002814BFC0
:104F80001846104655E7CBF3130343F07F510F95B6
:104F90005046A4F2FF3441F44011169D84E73C488A
:104FA0003BE7C31C4EE70021C9F844104846229154
:104FB00001F070FE4FF0FF33229A07930E93012306
:104FC00008902392C9F840000A93179B002BC0F267
:104FD000CA80039A0E2A00F3C6802B4B03EBC20350
:104FE00018CBCDE90434239B002BC0F2FC8256463B
:104FF0005F46DDE904AB304652465B463946FDF775
:105000009FFF02F0EDFD0446FDF70AFE52465B46A7
:10501000FDF76CFE02460B4630463946FDF7B2FC02
:10502000079E089F04F13005012E3D7002460B4695
:1050300007F101055ED00022164BFDF757FE002256
:10504000002306460F46FEF7B9F8002878D1CDF8C0
:105050001890DDF81CA0DDF820B0DDE9048928E017
:1050600061436F63A787D23FB3C8608B288AC63F6E
:10507000FB799F501344D33F0000F07F91800000E4
:10508000A08000000000F83FC08000009480000075
:1050900090800000000024400022C34BFDF726FE54
:1050A0000022002306460F46FEF788F8002840F04D
:1050B000B38342464B4630463946FDF741FF02F086
:1050C0008FFD0446FDF7ACFD42464B46FDF70EFE54
:1050D00002460B4630463946FDF754FC04F13006D3
:1050E00005F8016BCBEB0506564502460B46D3D1BE
:1050F000DDF8189010461946FDF746FC06460F46A7
:1051000002460B46DDE90401FEF762F840B9DDE92D
:10511000040132463B46FEF751F888B1E3070FD54C
:1051200015F8014C6B1E089A04E09A4200F02C849A
:1051300013F8014D392C03F10105F6D001341C7030
:105140000999484601F0CEFD0022039B2A70249A5B
:1051500001331360269B002B00F0A88308981D6084
:1051600019B0BDE8F08F0A9A002A00F01281229A45
:10517000012A40F35A82079B0B9A5F1EBA42C0F283
:105180009883D71B079B002BC0F28C84069D079B3E
:10519000069A01211A440692049A48461A44049237
:1051A00001F038FE064665B1049900290B4608DD7A
:1051B000A942A8BF2B46069AED1AD21ACB1A06921C
:1051C00004930B9B002B40F3FD820A9A002A00F007
:1051D0000382002F00F0008231463A46484601F033
:1051E000C1FEDDF82480014642460646484601F0ED
:1051F0001BFE41460446484601F074FD0B9BDB1B39
:105200000B9340F0E8810121484601F003FE0C9B1E
:105210008046002B00F01B8201461A46484601F0EA
:10522000A1FE229B8046012B40F3F9820027D8F88B
:10523000103008EB8303186901F09EFDC0F12000D7
:10524000049A104410F01F0000F0F881C0F1200310
:10525000042B40F3CB84069BC0F11C00034406934F
:105260001346034405440493069B002B05DD2146A9
:105270001A46484601F0C6FE0446049B002B05DD95
:1052800041461A46484601F0BDFE80460D9B002B64
:1052900040F07D82079B002B40F396820A9B002BF7
:1052A00040F0F681DDF820A0079F554604E0214636
:1052B000484601F021FD044641462046FFF7E6FC42
:1052C000303005F8010BCAEB0503BB424FF00A0270
:1052D0004FF00003EBDB089B079A8246012AACBF24
:1052E0009B1801331D464FF0000B21460122484612
:1052F00001F088FE4146099001F0DAFE002840F3F3
:105300000E8315F8012C6B1E089904E08B4200F007
:10531000798213F8012D392A03F10105F6D0013203
:105320001A704146484601F0DDFC002E3FF408AFFC
:10533000BBF1000F05D0B34503D05946484601F0F4
:10534000D1FC3146484601F0CDFCF9E601230D932E
:10535000EAE5DDF80C804046FDF762FC02460B46AC
:1053600030463946FDF72AFF00287FF4C9AD08F121
:10537000FF330393C4E5069A039BD21A5B420B9357
:10538000002306920C93E1E55B420693002304930D
:10539000D1E50B9F069D0A9E05E7C3F120080AFA96
:1053A00008F07AE50D90BFE50000244000230A9341
:1053B000039B239A13440E930133002B079340F36E
:1053C0008582079C26460021172EC9F844100BD968
:1053D000012204235B0003F11400B042114602F1E4
:1053E0000102F7D9C9F84410484601F053FC0E2CCD
:1053F0000890C9F840003FF6E8AD002D3FF4E5AD58
:105400005746D8460399CDE91078002940F3938296
:10541000924B01F00F020E1103EBC203F006D3E929
:10542000004540F14E828E4B5046D3E90823594641
:10543000FDF786FD82468B4606F00F064FF0030807
:1054400086B1874FF10709D5D7E9002320462946C1
:10545000FDF74CFC04460D4608F10108761007F1F3
:105460000807EFD122462B4650465946FDF768FD06
:1054700006460F460D9B43B100227A4B3046394613
:10548000FDF7A6FE002840F023834046FDF7C8FB49
:1054900032463B46FDF72AFC734B0022FDF774FAB7
:1054A000079B0446A1F15075002B00F0E181039B9E
:1054B0001393079B12930A9B002B00F09882129A79
:1054C000664B002003EBC20353E902236749FDF753
:1054D00037FD22462B46FDF755FA82468B4630466D
:1054E000394602F07DFB0446FDF79AFB02460B4667
:1054F00030463946FDF746FA3034089DE4B2064698
:105500000F462C7002460B46504659460135FDF7B2
:105510007DFE00284ED132463B4600205149FDF722
:1055200031FA02460B4650465946FDF76FFE0028F9
:1055300040F00E83129A012A40F3B481129B089A1C
:10554000134498460FE032463B4600204549FDF79C
:1055500019FA52465B46FDF73BFE002840F0F88200
:10556000454500F09F81504659460022404BFDF7CB
:10557000BDFB00223E4B82468B4630463946FDF746
:10558000B5FB0F46064602F02BFB0446FDF748FB31
:1055900002460B4630463946FDF7F4F93034E4B2A2
:1055A00005F8014B52465B4606460F46FDF710FED6
:1055B0000028C8D0139B0393C2E500230A93239BC2
:1055C000002B40F388811E461C460E930793FAE693
:1055D00001230A93F3E709940B9A0999484601F0CD
:1055E000C1FC04460FE6079B002B3FF700AD40F0DF
:1055F000D982DDE9040100221E4BFDF777FB5246FC
:105600005B46FDF7F9FDDDF81C804646002800F0FA
:10561000F180239B089DDB4303934146484601F0FC
:1056200061FB002E3FF48CAD8BE60F9A002A00F050
:10563000418203F233430B9F069DA9E51C20069B84
:10564000054403440693049B034404930CE6229B05
:10565000012B40F381820C9F0120F1E5C080000006
:10566000888100000000F03F00001C400000E03F87
:105670000000244000001440314600230A2248461E
:1056800001F03AFB0E9B0646002B40F397820793EE
:10569000002D05DD31462A46484601F0B3FC06469A
:1056A000002F40F07B810696079B089A013BD31898
:1056B000099317460AF00103C246DDF818B00A93B1
:1056C00051462046FFF7E2FA31460546204601F0F2
:1056D000EFFC5A4604905146484601F009FDC26865
:1056E000804605F13003002A49D101462046079340
:1056F00001F0DEFC41460690484601F0F3FA069AB6
:10570000079B2AB9229919B90A99002900F0368213
:1057100004990029C0F2E48005D1229919B90A99A7
:10572000002900F0DD80002A00F34C81099A07F17E
:10573000010897423B70454600F053812146002303
:105740000A22484601F0D8FA5E45044631464FF039
:1057500000034FF00A0248460BD001F0CDFA59463B
:10576000064600230A22484601F0C6FA4746834609
:10577000A6E701F0C1FA474606468346A0E7014680
:105780004846069301F0AEFA0122069BC0E7414667
:10579000204601F08DFC0028BFF67CAD2146039C1D
:1057A0000023013C0A224846039401F0A5FA0A9B13
:1057B0000446002B7FF460AF0E9B002B40F3F68174
:1057C00007936FE5099C1EE5229B022B7FF766ADD0
:1057D000079B002B40F07A8141460522484601F0A4
:1057E0008BFA01468046204601F062FC00280994AD
:1057F0007FF70FAF039A08993123013203920B70A0
:105800004D1C0AE7039A312301320392089A137060
:1058100087E501230A93CBE5DDF8189090E4BAF10F
:10582000000F7FF403ADCBF31303002B40F0408156
:105830002BF000473F0D3F0537B1069B0127013391
:105840000693049B013304930C9B0120002B3FF42F
:10585000F7ACECE44046FDF7E3F932463B46FDF792
:1058600045FA0022BF4BFDF78FF80446A1F15075B1
:10587000304639460022BC4BFDF784F822462B46C1
:1058800006460F46FDF7C2FC8046002840F0068120
:10589000224605F1004330463946FDF799FC08B130
:1058A0004646B6E6DDE910ABFFF78FBB0898FFF779
:1058B000B4BA0B9B0C9AFB1A1A440B970C92002754
:1058C00060E4DDE910AB4FF00208B9E51C460021A9
:1058D000C9F8441088E5012423940E940794F6E750
:1058E000002AD046CDF818B09A4611DD2146012293
:1058F000484601F087FB4146044601F0D9FB0028E9
:1059000040F34981BAF1390F00F0078105F1310AFE
:10591000B34687F800A07D1C069E099401E504D1DA
:105920001AF0010F01D0ECE4154615F8013C6A1E8F
:10593000302BF9D0F5E4039B5C42002C00F0C180D1
:10594000DDE91001894B04F00F0203EBC203D3E938
:105950000023FDF7CBF9241106460F4600F02B81FA
:10596000834D4FF00208E20709D5D5E90023304600
:105970003946FDF7BBF906460F4608F101086410E9
:1059800005F10805EFD175E5089930220A70039AF0
:1059900015F8014C01320392FFF7D0BB71684846FD
:1059A00001F078F90546336906F10C019A1C920062
:1059B0000C30FDF755FC29460122484601F022FB38
:1059C000069071E6392BCDF818B0D04600F0A580CE
:1059D00003F1010AB34687F800A07D1C069E0994D6
:1059E0009FE45A46D046B3469A4616467DE4129B3B
:1059F0005E4903F1FF3A01EBCA012246D1E90001F9
:105A00002B46FDF773F9CDE914013946304602F013
:105A1000E7F80446FDF704F90B46024639463046DE
:105A2000FCF7B0FF129B0F4608993034012B064655
:105A30000C7001F101051FD0129B089AA84613446F
:105A40009B4600224B4B30463946FDF74FF90F4637
:105A5000064602F0C5F80446FDF7E2F802460B469A
:105A600030463946FCF78EFF303408F8014BC34509
:105A700006460F46E5D1554400223F4BDDE91401AF
:105A8000FCF782FF32463B46FDF7A2FB00284CD0D4
:105A9000139B039315F8014CFFF744BB4FF000082C
:105AA0004646A7E6069B079A9D1A0023FFF770BBA0
:105AB0000027C9E6169B0B9FC3F13603069DFFF72F
:105AC00067BBDDE910674FF00208D3E40994A0E555
:105AD000079B002B3FF4BEAE0E9B002B7FF7E2AE80
